:100000000C942A000C9447000C9447000C94470071
:100010000C9447000C9447000C9447000C94470044
:100020000C9447000C9447000C9447000C94470034
:100030000C9447000C9447000C9447000C94470024
:100040000C9447000C9447000C9447000C94470014
:100050000C94470011241FBECFE5D8E0DEBFCDBF12
:1000600011E0A0E6B0E0ECE2F7E402C005900D92EA
:10007000AA39B107D9F713E0AAE9B1E001C01D928E
:10008000AE3CB107E1F70E9408220C9494230C9433
:100090000000EF92FF920F931F937B018C0120E0F1
:1000A00030E040E05FE40E94F50388238CF0C80153
:1000B000B70120E030E040E05FE40E94C1010E940F
:1000C000B3049B01AC01205030404040504806C072
:1000D000C801B7010E94B3049B01AC01B901CA0178
:1000E0001F910F91FF90EF900895A0E0B0E0EBE733
:1000F000F0E00C945822DC012B01FA019C91923023
:1001000008F439C1EB018881823008F433C194309E
:1001100069F4843009F02FC111969C91119789815F
:10012000981709F428C1A0E6B0E025C1843009F48D
:1001300021C18230A9F4923009F01DC19A01AD01AC
:1001400088E0EA010990AE01E90109929E0181501F
:10015000C1F7E201898111969C918923818308C1AD
:10016000923009F407C112962D903C901397EB0141
:100170008A819B811496AD90BD90CD90DC901797AD
:10018000EC80FD800E811F819101281B390BB90184
:1001900037FF04C066277727621B730B6032710537
:1001A0000CF061C0121613066CF537014801062EDB
:1001B00004C096948794779467940A94D2F721E0C8
:1001C00030E040E050E004C0220F331F441F551FB1
:1001D0006A95D2F721503040404050402E213F21B7
:1001E00040235123211531054105510521F021E01E
:1001F00030E040E050E079018A01E628F72808293C
:1002000019293CC0232BD1F1260E371E350146019A
:10021000062E04C096948794779467940A94D2F734
:1002200021E030E040E050E004C0220F331F441FC3
:10023000551F6A95D2F721503040404050402A2146
:100240003B214C215D21211531054105510521F04E
:1002500021E030E040E050E059016A01A628B728CB
:10026000C828D9280BC0821593052CF01C01AA249C
:10027000BB24650103C0EE24FF24870111969C91E5
:10028000D20111968C91981709F445C0992339F041
:10029000A80197012A193B094C095D0906C0A6016E
:1002A00095012E193F09400B510B57FD08C01182D3
:1002B0003382228224833583468357831DC081E0A5
:1002C00081833382228288279927DC01821B930B4A
:1002D000A40BB50B84839583A683B7830DC0220F2F
:1002E000331F441F551F24833583468357838281E0
:1002F000938101979383828324813581468157813D
:10030000DA01C9010197A109B1098F5F9F4FAF4F72
:10031000BF4328F30BC0918333822282EA0CFB1C7B
:100320000C1D1D1DE482F5820683178383E0808304
:10033000248135814681578157FF1AC0C901AA27F8
:1003400097FDA095BA2F81709070A070B0705695EF
:10035000479537952795822B932BA42BB52B848318
:100360009583A683B7838281938101969383828349
:10037000DF0101C0D201CD01CDB7DEB7E2E10C94BF
:100380007422A0E2B0E0E7ECF1E00C94642269830F
:100390007A838B839C832D833E834F835887E9E048
:1003A000EE2EF12CEC0EFD1ECE010196B7010E943F
:1003B0002B068E010F5E1F4FCE010596B8010E94DD
:1003C0002B068A8991E089278A8BC701B801AE0183
:1003D000475E5F4F0E9475000E945605A096E6E0BA
:1003E0000C948022A0E2B0E0E8EFF1E00C946422EB
:1003F00069837A838B839C832D833E834F835887C5
:10040000F9E0EF2EF12CEC0EFD1ECE010196B701A6
:100410000E942B068E010F5E1F4FCE010596B8017C
:100420000E942B06C701B801AE01475E5F4F0E94D4
:1004300075000E945605A096E6E00C948022A0E28A
:10044000B0E0E5E2F2E00C94582269837A838B8372
:100450009C832D833E834F835887CE010196BE0136
:10046000675F7F4F0E942B06CE010596BE016F5E2F
:100470007F4F0E942B069985923088F089898230BF
:10048000C8F0943019F4823051F404C0843029F457
:10049000923081F480E690E0C6C0923049F420E0CA
:1004A0009A858A89981321E02A87CE010996BBC0D4
:1004B000823049F420E09A858A89981321E02A8BBA
:1004C000CE014196B0C02D843E844F8458886D88FB
:1004D0007E888F88988CEE24FF248701AA24BB2471
:1004E000650140E050E060E070E0E0E0F0E0C10174
:1004F00081709070892BE9F0E60CF71C081D191D1E
:100500009A01AB012A0D3B1D4C1D5D1D80E090E062
:10051000A0E0B0E0E614F7040805190520F481E036
:1005200090E0A0E0B0E0BA01A901480F591F6A1F8E
:100530007B1FAA0CBB1CCC1CDD1C97FE08C081E0F5
:1005400090E0A0E0B0E0A82AB92ACA2ADB2A3196B6
:10055000E032F10549F0660C771C881C991C569412
:10056000479437942794C3CFFA85EA892B893C892D
:100570008B859C85280F391F2E5F3F4F17C0CA01FE
:1005800081709070892B61F016950795F794E79428
:1005900080E090E0A0E0B0E8E82AF92A0A2B1B2BC3
:1005A00076956795579547952F5F3F4F77FDE7CF36
:1005B0000CC0440F551F661F771F17FD4160EE0CDE
:1005C000FF1C001F111F21503040403090E05907A0
:1005D00090E0690790E4790760F32B8F3C8FDB0193
:1005E000CA018F779070A070B07080349105A1051A
:1005F000B10561F447FD0AC0E114F10401051105DC
:1006000029F0405C5F4F6F4F7F4F40781A8EFE1786
:1006100011F081E08A8F4D8F5E8F6F8F78A383E01A
:10062000898FCE0149960E945605A096E2E10C946E
:100630007422A8E1B0E0EFE1F3E00C94602269835A
:100640007A838B839C832D833E834F835887B9E0C5
:10065000EB2EF12CEC0EFD1ECE010196B7010E948F
:100660002B068E010F5E1F4FCE010596B8010E942A
:100670002B062985223008F47EC03989323010F4E7
:10068000B8017CC08A859A8989278A87243011F02D
:10069000223031F4231709F06EC060E670E06EC0BE
:1006A000343039F41D861E861F86188A1C861B86E8
:1006B00004C0323021F484E08987B7015FC02B8504
:1006C0003C858B899C89281B390B3C872B87ED84C3
:1006D000FE840F851889AD88BE88CF88D88CEA142F
:1006E000FB040C051D0540F4EE0CFF1C001F111F40
:1006F000215030403C872B8720E030E040E050E044
:1007000080E090E0A0E0B0E460E070E0EA14FB0478
:100710000C051D0540F0282B392B4A2B5B2BEA18C2
:10072000FB080C091D09B695A79597958795EE0CC2
:10073000FF1C001F111F6F5F7F4F6F31710531F775
:10074000DA01C9018F779070A070B0708034910584
:10075000A105B10561F427FD0AC0E114F10401050A
:10076000110529F0205C3F4F4F4F5F4F20782D87B8
:100770003E874F87588BBE01675F7F4FCB010E943A
:1007800056056896EAE00C947C22A8E1B0E0EBEC18
:10079000F3E00C94642269837A838B839C832D839A
:1007A0003E834F83588789E0E82EF12CEC0EFD1E26
:1007B000CE010196B7010E942B068E010F5E1F4FDE
:1007C000CE010596B8010E942B068985823040F043
:1007D0008989823028F0C701B8010E94A30601C0B0
:1007E0008FEF6896E6E00C948022A8E1B0E0EBEF92
:1007F000F3E00C94642269837A838B839C832D833A
:100800003E834F83588789E0E82EF12CEC0EFD1EC5
:10081000CE010196B7010E942B068E010F5E1F4F7D
:10082000CE010596B8010E942B068985823040F0E2
:100830008989823028F0C701B8010E94A30601C04F
:100840008FEF6896E6E00C948022A8E1B0E0EBE23E
:10085000F4E00C94642269837A838B839C832D83D8
:100860003E834F83588789E0E82EF12CEC0EFD1E65
:10087000CE010196B7010E942B068E010F5E1F4F1D
:10088000CE010596B8010E942B068985823040F082
:100890008989823028F0C701B8010E94A30601C0EF
:1008A00081E06896E6E00C948022A8E0B0E0EBE5F9
:1008B000F4E00C9461229B01AC0183E08983DA01AE
:1008C000C9018827B7FD83959927AA27BB27B82E8A
:1008D000211531054105510519F482E089833AC09B
:1008E0008823A9F0203080E0380780E0480780E8BE
:1008F000580729F460E070E080E09FEC30C0EE24FF
:10090000FF248701E21AF30A040B150B02C07901D8
:100910008A018EE1C82ED12CDC82CB82ED82FE8250
:100920000F831887C801B7010E94070501971816A1
:10093000190684F4082E04C0EE0CFF1C001F111FC2
:100940000A94D2F7ED82FE820F831887C81AD90A5B
:10095000DC82CB82BA82CE0101960E94560528968F
:10096000E9E00C947D22ACE0B0E0E9EBF4E00C941B
:10097000682269837A838B839C83CE010196BE01B2
:100980006B5F7F4F0E942B068D81823061F1823038
:1009900050F1843021F48E81882351F12EC02F81B3
:1009A000388537FD20C06E812F3131051CF066235C
:1009B000F9F023C08EE190E0821B930B29853A85E4
:1009C0004B855C8504C056954795379527958A9544
:1009D000D2F76623B1F050954095309521953F4F61
:1009E0004F4F5F4F0EC020E030E040E050E009C0C4
:1009F0002FEF3FEF4FEF5FE704C020E030E040E033
:100A000050E8B901CA012C96E2E00C948422EF92DE
:100A1000FF920F931F937B018C0180E0E81680E02A
:100A2000F80681E0080780E0180788F48FEFE816E1
:100A3000F1040105110531F028F088E090E0A0E014
:100A4000B0E017C080E090E0A0E0B0E012C080E02D
:100A5000E81680E0F80680E0080781E0180728F033
:100A600088E190E0A0E0B0E004C080E190E0A0E088
:100A7000B0E020E230E040E050E0281B390B4A0BA8
:100A80005B0B04C016950795F794E7948A95D2F707
:100A9000F701E859FF4F8081281B310941095109AD
:100AA000C9011F910F91FF90EF900895DF92EF928F
:100AB000FF920F931F93FC01E480F580068117815C
:100AC000D1808081823048F480E090E0A0E1B0E005
:100AD000E82AF92A0A2B1B2BA5C0843009F49FC0F1
:100AE000823021F4EE24FF24870105C0E114F104D3
:100AF0000105110519F4E0E0F0E096C06281738110
:100B00009FEF623879070CF05BC022E83FEF261BAD
:100B1000370B2A3131052CF020E030E040E050E086
:100B20002AC0B801A701022E04C076956795579593
:100B300047950A94D2F781E090E0A0E0B0E004C0CD
:100B4000880F991FAA1FBB1F2A95D2F70197A109E9
:100B5000B1098E219F21A023B1230097A105B105E2
:100B600021F081E090E0A0E0B0E09A01AB01282BF9
:100B7000392B4A2B5B2BDA01C9018F779070A0705B
:100B8000B07080349105A105B10539F427FF09C083
:100B9000205C3F4F4F4F5F4F04C0215C3F4F4F4F92
:100BA0005F4FE0E0F0E02030A0E03A07A0E04A0725
:100BB000A0E45A0710F0E1E0F0E079018A0127C0D3
:100BC0006038710564F5FB01E158FF4FD801C7019A
:100BD0008F779070A070B07080349105A105B10539
:100BE00039F4E7FE0DC080E490E0A0E0B0E004C07E
:100BF0008FE390E0A0E0B0E0E80EF91E0A1F1B1F93
:100C000017FF05C016950795F794E794319687E08E
:100C100016950795F794E7948A95D1F705C0EE24C9
:100C2000FF248701EFEFF0E06E2F67956627679549
:100C3000902F9F77D794DD24D7948E2F8695492FB8
:100C4000462B582F5D29B701CA011F910F91FF90C4
:100C5000EF90DF900895FC01DB01408151812281FA
:100C6000622F6F7770E0221F2227221F9381892F26
:100C7000880F822B282F30E0991F9927991F1196F2
:100C80009C93119721153105A9F541155105610571
:100C9000710511F482E037C082E89FEF13969C93B0
:100CA0008E9312979A01AB0167E0220F331F441F06
:100CB000551F6A95D1F783E08C930DC0220F331F27
:100CC000441F551F12968D919C911397019713966F
:100CD0009C938E931297203080E0380780E048077D
:100CE00080E4580758F314962D933D934D935C93ED
:100CF000179708952F3F310579F441155105610586
:100D0000710519F484E08C93089564FF03C081E0B9
:100D10008C9312C01C9210C02F57304013963C93F6
:100D20002E93129783E08C9387E0440F551F661F24
:100D3000771F8A95D1F7706414964D935D936D93E8
:100D40007C93179708951F93DC01FB019C919230CF
:100D500008F447C08081823008F443C0943051F4D5
:100D600011961C91843099F58181682F70E0611B88
:100D700071093FC0843021F0923031F48230B9F1F2
:100D80008181882389F12DC011961C9111978230A1
:100D9000F1F081811817D9F412962D913C91139797
:100DA000828193818217930794F028173907BCF04A
:100DB00014968D919D910D90BC91A02D248135812B
:100DC00046815781281739074A075B0718F4112312
:100DD00041F00AC082179307A407B50740F4112316
:100DE00019F061E070E005C06FEF7FEF02C060E0D6
:100DF00070E0CB011F910895DF93CF930F92CDB791
:100E0000DEB781E08983EAE3F0E08FEF8083E7E3F8
:100E1000F0E08FEF8083E4E3F0E08FEF8083E1E3A5
:100E2000F0E08FEF8083EBE3F0E08FEF8083E8E387
:100E3000F0E08EEF8083E5E3F0E08FEF8083E2E384
:100E4000F0E08FEF8083198289810F90CF91DF913D
:100E50000895DF93CF9300D000D00F92CDB7DEB7C7
:100E60008A836B8381E089838A81843018F083E0F0
:100E7000898333C08A81282F30E03D832C838C8185
:100E80009D8181309105D1F02C813D812230310549
:100E90002CF48C819D81009761F01EC02C813D81D6
:100EA0002230310581F08C819D818330910581F064
:100EB00013C0EAE3F0E08B8180830EC0E7E3F0E04B
:100EC0008B81808309C0E4E3F0E08B81808304C0E0
:100ED000E1E3F0E08B818083198289810F900F908C
:100EE0000F900F900F90CF91DF910895DF93CF93E4
:100EF00000D000D00F92CDB7DEB78A836B8381E03C
:100F000089838A81843018F083E0898333C08A81A1
:100F1000282F30E03D832C838C819D818130910589
:100F2000D1F02C813D81223031052CF48C819D81C2
:100F3000009761F01EC02C813D812230310581F087
:100F40008C819D818330910581F013C0EBE3F0E04B
:100F50008B8180830EC0E8E3F0E08B81808309C041
:100F6000E5E3F0E08B81808304C0E2E3F0E08B8175
:100F70008083198289810F900F900F900F900F90AE
:100F8000CF91DF910895DF93CF9300D000D0CDB7FC
:100F9000DEB78A8381E089838A81843018F083E018
:100FA00089833FC08A81282F30E03C832B838B814B
:100FB0009C8181309105E9F02B813C812230310503
:100FC0002CF48B819C81009761F02AC02B813C819D
:100FD00022303105B1F08B819C8183309105C9F0BD
:100FE0001FC0ABE3B0E0EBE3F0E0808180958C9331
:100FF00017C0A8E3B0E0E8E3F0E0808180958C932F
:101000000FC0A5E3B0E0E5E3F0E0808180958C932C
:1010100007C0A2E3B0E0E2E3F0E0808180958C932A
:10102000198289810F900F900F900F90CF91DF91CF
:101030000895DF93CF9300D000D000D0CDB7DEB7B6
:101040008A837C836B8381E089838B819C81009779
:1010500019F482E0898341C08A81843018F083E0EA
:1010600089833BC08A81282F30E03E832D838D8188
:101070009E8181309105E1F02D813E812230310544
:101080002CF48D819E81009761F026C02D813E81D8
:1010900022303105A1F08D819E8183309105B1F020
:1010A0001BC0E9E3F0E08081EB81FC81808314C008
:1010B000E6E3F0E08081EB81FC8180830DC0E3E317
:1010C000F0E08081EB81FC81808306C0E0E3F0E00A
:1010D0008081EB81FC8180831982898126960FB6FD
:1010E000F894DEBF0FBECDBFCF91DF910895DF939F
:1010F000CF9300D000D000D0CDB7DEB78A836B830A
:101100004C8381E089838A81843018F48C81823019
:1011100018F083E08983CDC08B81883018F083E09C
:101120008983C7C08A81282F30E03E832D836D815B
:101130007E816130710509F441C08D819E818230CC
:10114000910534F42D813E812115310571F0B0C037
:101150006D817E816230710509F459C08D819E8157
:101160008330910509F47CC0A3C0AAE3B0E0EAE3B0
:10117000F0E08081482F8B81282F30E081E090E0E3
:1011800002C0880F991F2A95E2F7809584238C93DB
:10119000AAE3B0E0EAE3F0E08081482F8C81282FB9
:1011A00030E08B81882F90E0B90102C0660F771F75
:1011B0008A95E2F7CB01842B8C937AC0A7E3B0E049
:1011C000E7E3F0E08081482F8B81282F30E081E039
:1011D00090E002C0880F991F2A95E2F7809584233A
:1011E0008C93A7E3B0E0E7E3F0E08081482F8C81A7
:1011F000282F30E08B81882F90E0B90102C0660F64
:10120000771F8A95E2F7CB01842B8C9351C0A4E31E
:10121000B0E0E4E3F0E08081482F8B81282F30E0BC
:1012200081E090E002C0880F991F2A95E2F780952F
:1012300084238C93A4E3B0E0E4E3F0E08081482FC2
:101240008C81282F30E08B81882F90E0B90102C07B
:10125000660F771F8A95E2F7CB01842B8C9328C009
:10126000A1E3B0E0E1E3F0E08081482F8B81282FFB
:1012700030E081E090E002C0880F991F2A95E2F7E4
:10128000809584238C93A1E3B0E0E1E3F0E08081DA
:10129000482F8C81282F30E08B81882F90E0B90176
:1012A00002C0660F771F8A95E2F7CB01842B8C93DF
:1012B0001982898126960FB6F894DEBF0FBECDBF86
:1012C000CF91DF910895DF93CF9300D000D000D06D
:1012D000CDB7DEB78A836B834C8381E089838A81B3
:1012E000843018F48C81823018F083E08983CDC07B
:1012F0008B81883018F083E08983C7C08A81282FCA
:1013000030E03E832D836D817E816130710509F46B
:1013100041C08D819E818230910534F42D813E81C2
:101320002115310571F0B0C06D817E81623071058B
:1013300009F459C08D819E818330910509F47CC0E8
:10134000A3C0ABE3B0E0EBE3F0E08081482F8B81FA
:10135000282F30E081E090E002C0880F991F2A9585
:10136000E2F7809584238C93ABE3B0E0EBE3F0E00D
:101370008081482F8C81282F30E08B81882F90E04E
:10138000B90102C0660F771F8A95E2F7CB01842B63
:101390008C937AC0A8E3B0E0E8E3F0E08081482FC6
:1013A0008B81282F30E081E090E002C0880F991FE8
:1013B0002A95E2F7809584238C93A8E3B0E0E8E3D4
:1013C000F0E08081482F8C81282F30E08B81882F9E
:1013D00090E0B90102C0660F771F8A95E2F7CB0152
:1013E000842B8C9351C0A5E3B0E0E5E3F0E080816D
:1013F000482F8B81282F30E081E090E002C0880FD9
:10140000991F2A95E2F7809584238C93A5E3B0E099
:10141000E5E3F0E08081482F8C81282F30E08B813C
:10142000882F90E0B90102C0660F771F8A95E2F716
:10143000CB01842B8C9328C0A2E3B0E0E2E3F0E080
:101440008081482F8B81282F30E081E090E002C01E
:10145000880F991F2A95E2F7809584238C93A2E345
:10146000B0E0E2E3F0E08081482F8C81282F30E06B
:101470008B81882F90E0B90102C0660F771F8A9593
:10148000E2F7CB01842B8C931982898126960FB6C3
:10149000F894DEBF0FBECDBFCF91DF910895DF93EB
:1014A000CF93CDB7DEB727970FB6F894DEBF0FBE48
:1014B000CDBF8A836B835D834C8381E089838A817E
:1014C000843018F083E089837EC08B81883018F0E7
:1014D00083E0898378C08C819D81009719F482E034
:1014E000898371C08A81282F30E03F832E834E810B
:1014F0005F814130510559F18E819F818230910584
:1015000034F42E813F812115310569F05BC04E8195
:101510005F814230510579F18E819F818330910541
:1015200009F43DC04FC0E9E3F0E08081282F30E0AE
:101530008B81882F90E0A90102C0559547958A9527
:10154000E2F7CA018170EC81FD8180833BC0E6E354
:10155000F0E08081282F30E08B81882F90E0A90176
:1015600002C0559547958A95E2F7CA018170EC81D2
:10157000FD81808327C0E3E3F0E08081282F30E005
:101580008B81882F90E0A90102C0559547958A95D7
:10159000E2F7CA018170EC81FD81808313C0E0E332
:1015A000F0E08081282F30E08B81882F90E0A90126
:1015B00002C0559547958A95E2F7CA018170EC8182
:1015C000FD8180831982898127960FB6F894DEBF4A
:1015D0000FBECDBFCF91DF910895DF93CF9300D0A1
:1015E00000D00F92CDB7DEB78A836B8381E0898309
:1015F0008A81843018F083E0898375C08B818830BC
:1016000018F083E089836FC08A81282F30E03D8302
:101610002C838C819D818130910549F12C813D8104
:10162000223031052CF48C819D81009761F05AC0E5
:101630002C813D812230310571F18C819D81833077
:101640009105E9F14FC0ABE3B0E0EBE3F0E080815E
:10165000482F8B81282F30E081E090E0022E02C0DD
:10166000880F991F0A94E2F784278C933BC0A8E364
:10167000B0E0E8E3F0E08081482F8B81282F30E054
:1016800081E090E0022E02C0880F991F0A94E2F7D1
:1016900084278C9327C0A5E3B0E0E5E3F0E08081E8
:1016A000482F8B81282F30E081E090E0022E02C08D
:1016B000880F991F0A94E2F784278C9313C0A2E342
:1016C000B0E0E2E3F0E08081482F8B81282F30E00A
:1016D00081E090E0022E02C0880F991F0A94E2F781
:1016E00084278C93198289810F900F900F900F900F
:1016F0000F90CF91DF910895DF93CF9300D0CDB7B6
:10170000DEB79A838983E981FA8111821082E981A7
:10171000FA81138212820F900F90CF91DF9108957A
:10172000DF93CF9300D000D00F92CDB7DEB79C836C
:101730008B836D8383E090E00E948F229A8389835C
:10174000E981FA818D818083EB81FC8180819181A7
:10175000E981FA8192838183EB81FC8189819A817D
:1017600091838083EB81FC81828193810196EB815F
:10177000FC81938382830F900F900F900F900F90B6
:10178000CF91DF910895DF93CF9300D000D000D0A8
:10179000CDB7DEB79C838B837E836D83ED81FE8125
:1017A0000190F081E02D8081EB81FC818083ED81CF
:1017B000FE81808191819A838983ED81FE810190F0
:1017C000F081E02D81819281ED81FE819183808382
:1017D00089819A810E943C23ED81FE8182819381DF
:1017E0000197ED81FE819383828326960FB6F8944C
:1017F000DEBF0FBECDBFCF91DF910895DF93CF93B2
:1018000000D000D0CDB7DEB79A838983E981FA8111
:10181000808191811C821B82009721F481E090E0FD
:101820009C838B838B819C810F900F900F900F90E6
:10183000CF91DF910895DF93CF9300D0CDB7DEB77E
:101840009A838983E981FA81828193810F900F9035
:10185000CF91DF910895DF93CF9300D000D0CDB723
:10186000DEB79C838B83EB81FC81808191819A839D
:10187000898312C0E981FA81818192819A83898367
:10188000EB81FC81808191810E943C23EB81FC8172
:1018900089819A819183808389819A81009751F708
:1018A000EB81FC81138212820F900F900F900F90AA
:1018B000CF91DF910895DF93CF9300D0CDB7DEB7FE
:1018C0009A838983E981FA810190F081E02D8081FA
:1018D0000F900F90CF91DF910895DF93CF9300D0B9
:1018E00000D000D0CDB7DEB79A8389837C836B8329
:1018F00029813A818B819C81821793072CF48981FD
:101900009A819E838D8304C08B819C819E838D836D
:101910008D819E8126960FB6F894DEBF0FBECDBF97
:10192000CF91DF910895DF93CF93CDB7DEB728979E
:101930000FB6F894DEBF0FBECDBF69837A838B8369
:101940009C8369817A818B819C8120E030E040E03A
:1019500050E00E94C50318164CF429813A814B814E
:101960005C812D833E834F8358870BC089819A8188
:10197000AB81BC819C01AD0150582D833E834F83C8
:1019800058878D819E81AF81B885BC01CD01289695
:101990000FB6F894DEBF0FBECDBFCF91DF91089593
:1019A000DF93CF93CDB7DEB70E94D90CCF91DF91F3
:1019B0000895CF92DF92EF92FF920F931F93DF93E0
:1019C000CF9300D0CDB7DEB780E090E0A0E8BFE3D2
:1019D00080939A0190939B01A0939C01B0939D01E9
:1019E00081E090E09A83898335C0C980DA8089815B
:1019F0009A810197880F991F880F991FFC01E6565D
:101A0000FE4FE080F1800281138189819A81AA27AB
:101A100097FDA095BA2FBC01CD010E9455049B01F2
:101A2000AC01C801B7010E941F02DC01CB019C017F
:101A3000AD01C601880F991F880F991FFC01E6565A
:101A4000FE4F208331834283538389819A8101969B
:101A50009A83898389819A818436910534F20F9023
:101A60000F90CF91DF911F910F91FF90EF90DF903A
:101A7000CF900895DF93CF93CDB7DEB762970FB6BF
:101A8000F894DEBF0FBECDBF6B877C878D879E87A6
:101A90006B857C858D859E8520E030E040E050E4BC
:101AA0000E94F50388230CF16B857C858D859E85CE
:101AB00020E030E040E050E40E941903DC01CB015B
:101AC000BC01CD010E943A0DDC01CB01BC01CD016E
:101AD00028E132E741E35FE30E94F201DC01CB0140
:101AE0008F87988BA98BBA8B93C06B857C858D85EE
:101AF0009E8520E030E040E85FE30E94C101DC0108
:101B0000CB018B879C87AD87BE8780E090E0A0E00B
:101B1000B0E08F839887A987BA878B859C85AD8530
:101B2000BE858B839C83AD83BE8381E090E09A83E6
:101B3000898360C089819A8181709070882319F1AE
:101B400089819A81AA2797FDA095BA2FBC01CD0162
:101B50000E9455049B01AC016B817C818D819E812B
:101B60000E941903DC01CB019C01AD016F817885D6
:101B700089859A850E94F201DC01CB018F839887C9
:101B8000A987BA8722C089819A81AA2797FDA09543
:101B9000BA2FBC01CD010E9455049B01AC016B81A1
:101BA0007C818D819E810E941903DC01CB019C0107
:101BB000AD016F81788589859A850E94C101DC011C
:101BC000CB018F839887A987BA876B817C818D81B0
:101BD0009E812B853C854D855E850E941F02DC0120
:101BE000CB018B839C83AD83BE8389819A810196CF
:101BF0009A83898389819A81843691050CF49ACFDE
:101C00008F819885A985BA858F87988BA98BBA8B88
:101C10008F859889A989BA89BC01CD0162960FB6D2
:101C2000F894DEBF0FBECDBFCF91DF910895DF9353
:101C3000CF93CDB7DEB72E970FB6F894DEBF0FBEA9
:101C4000CDBF6B877C878D879E8780E090E0A0E08A
:101C5000B0E08F839887A987BA8780E090E0A0E8FA
:101C6000BFE38B839C83AD83BE831A82198238C005
:101C700089819A81880F991F880F991FFC01E65668
:101C8000FE4F20813181428153816B817C818D8126
:101C90009E810E941903DC01CB019C01AD016F8183
:101CA000788589859A850E94F201DC01CB018F83BA
:101CB0009887A987BA876B817C818D819E812B85CE
:101CC0003C854D855E850E941F02DC01CB018B8324
:101CD0009C83AD83BE8389819A8101969A8389838F
:101CE00089819A81863291051CF28F819885A98518
:101CF000BA85BC01CD012E960FB6F894DEBF0FBE9B
:101D0000CDBFCF91DF910895DF93CF93CDB7DEB7ED
:101D100062970FB6F894DEBF0FBECDBF6B877C878E
:101D20008D879E872F87388B498B5A8B6F85788953
:101D300089899A8920E030E040E050E00E94250443
:101D40008823CCF460E070E080E89FE32B853C853D
:101D50004D855E850E941903DC01CB018B879C8732
:101D6000AD87BE878F859889A989BA89B0588F8732
:101D7000988BA98BBA8B6F85788989899A890E94FB
:101D8000B304DC01CB018F839887A987BA8780E0F1
:101D900090E0A0E8BFE38B839C83AD83BE831A826F
:101DA000198215C06B817C818D819E812B853C853C
:101DB0004D855E850E941F02DC01CB018B839C83D5
:101DC000AD83BE8389819A8101969A8389838981B3
:101DD0009A819C01442737FD4095542F8F81988527
:101DE000A985BA85281739074A075B07DCF26F8196
:101DF000788589859A850E9455049B01AC016F8581
:101E0000788989899A890E94C101DC01CB018F8779
:101E1000988BA98BBA8B8B859C85AD85BE85BC01C3
:101E2000CD010E943A0DDC01CB01BC01CD012F8513
:101E3000388949895A890E941F02DC01CB01BC0103
:101E4000CD010E94170E9B01AC016B817C818D81BD
:101E50009E810E941F02DC01CB018B839C83AD839A
:101E6000BE838B819C81AD81BE81BC01CD01629618
:101E70000FB6F894DEBF0FBECDBFCF91DF910895AE
:101E8000DF93CF93CDB7DEB7E9970FB6F894DEBFF7
:101E90000FBECDBF81E089AF83E060E041E00E94EA
:101EA000770883E061E041E00E94770883E062E028
:101EB00041E00E94770882E067E041E00E947708F5
:101EC00082E066E041E00E94770882E065E041E060
:101ED0000E94770882E064E041E00E94770880E099
:101EE00090E0ACE0B2E48DAB9EABAFABB8AF6DA908
:101EF0007EA98FA998AD20E030E04AE753E40E9424
:101F00001F02DC01CB0189AB9AABABABBCAB69A9BF
:101F10007AA98BA99CA920E030E040E85FE30E9409
:101F2000250488232CF481E090E098AB8FA73FC074
:101F300069A97AA98BA99CA920E03FEF4FE757E454
:101F40000E94C50318164CF56DA97EA98FA998ADFE
:101F500020E030E040E251E40E941F02DC01CB01AE
:101F6000BC01CD010E944900DC01CB0198AB8FA7D9
:101F70000FC089E190E09EA78DA78DA59EA5019732
:101F8000F1F79EA78DA78FA598A9019798AB8FA76A
:101F90008FA598A9009769F714C069A97AA98BA998
:101FA0009CA90E944900DC01CB0198AB8FA78FA5AB
:101FB00098A99CA78BA78BA59CA50197F1F79CA737
:101FC0008BA782E063E041E00E94770882E062E054
:101FD00041E00E94770882E061E041E00E947708DA
:101FE00082E060E041E00E9477088BE30E94FD12EE
:101FF00080E090E0A0E8BFE38FA398A7A9A7BAA7C5
:102000006FA178A589A59AA520E030E04AE753E4BE
:102010000E941F02DC01CB018BA39CA3ADA3BEA336
:102020006BA17CA18DA19EA120E030E040E85FE3A0
:102030000E94250488232CF481E090E09AA389A3D0
:102040003FC06BA17CA18DA19EA120E03FEF4FE797
:1020500057E40E94C50318164CF56FA178A589A511
:102060009AA520E030E040E251E40E941F02DC012A
:10207000CB01BC01CD010E944900DC01CB019AA338
:1020800089A30FC089E190E098A38F8F8F8D98A1CD
:102090000197F1F798A38F8F89A19AA101979AA32D
:1020A00089A389A19AA1009769F714C06BA17CA1AB
:1020B0008DA19EA10E944900DC01CB019AA389A3B6
:1020C00089A19AA19E8F8D8F8D8D9E8D0197F1F79D
:1020D0009E8F8D8F8FE00E94FD1280E090E0A0E83F
:1020E000BFE3898F9A8FAB8FBC8F698D7A8D8B8D73
:1020F0009C8D20E030E04AE753E40E941F02DC019F
:10210000CB018D8B9E8BAF8BB88F6D897E898F892C
:10211000988D20E030E040E85FE30E9425048823AA
:102120002CF481E090E09C8B8B8B3FC06D897E8985
:102130008F89988D20E03FEF4FE757E40E94C50359
:1021400018164CF5698D7A8D8B8D9C8D20E030E0D2
:1021500040E251E40E941F02DC01CB01BC01CD0131
:102160000E944900DC01CB019C8B8B8B0FC089E165
:1021700090E09A8B898B89899A890197F1F79A8BDC
:10218000898B8B899C8901979C8B8B8B8B899C89F4
:10219000009769F714C06D897E898F89988D0E9498
:1021A0004900DC01CB019C8B8B8B8B899C89988BA4
:1021B0008F878F8598890197F1F7988B8F8781E0BA
:1021C0000E94FD1280E090E0A0E0B0E48B879C8745
:1021D000AD87BE876B857C858D859E8520E030E050
:1021E0004AE753E40E941F02DC01CB018F839887EA
:1021F000A987BA876F81788589859A8520E030E044
:1022000040E85FE30E94250488232CF481E090E0FD
:102210009E838D833FC06F81788589859A8520E074
:102220003FEF4FE757E40E94C50318164CF56B8546
:102230007C858D859E8520E030E040E251E40E945F
:102240001F02DC01CB01BC01CD010E944900DC0171
:10225000CB019E838D830FC089E190E09C838B83AB
:102260008B819C810197F1F79C838B838D819E816B
:1022700001979E838D838D819E81009769F714C09D
:102280006F81788589859A850E944900DC01CB01A0
:102290009E838D838D819E819A83898389819A8192
:1022A0000197F1F79A83898386E00E94FD1219AEA7
:1022B00089ADE9960FB6F894DEBF0FBECDBFCF91C2
:1022C000DF910895DF93CF9300D0CDB7DEB78A8337
:1022D00081E0898383E060E041E00E9463098A81B4
:1022E0000E94A011198289810F900F90CF91DF91E8
:1022F0000895DF93CF9300D0CDB7DEB78A8381E016
:10230000898383E060E040E00E9463098A810E9443
:10231000A011198289810F900F90CF91DF910895BC
:10232000DF93CF930F92CDB7DEB781E0898381E051
:102330000E94FD12198289810F90CF91DF9108953B
:10234000DF93CF93CDB7DEB76D970FB6F894DEBFAE
:102350000FBECDBF8D8F83E061E040E00E94630936
:1023600083E062E040E00E9463098D8D982F991F01
:102370009927991F82E067E0492F0E9463098D8D9C
:102380008295869586958370982F917082E066E09D
:10239000492F0E9463098D8D829586958770982FAD
:1023A000917082E065E0492F0E9463098D8D8295CE
:1023B0008F70982F917082E064E0492F0E9463092A
:1023C0008D8D869586958695982F917082E063E035
:1023D000492F0E9463098D8D86958695982F91705F
:1023E00082E062E0492F0E9463098D8D8695982FC7
:1023F000917082E061E0492F0E9463098D8D982FD2
:10240000917082E060E0492F0E94630983E062E0FE
:1024100041E00E94630980E090E0A0E2B1E4898F8E
:102420009A8FAB8FBC8F698D7A8D8B8D9C8D20E0C0
:1024300030E04AE753E40E941F02DC01CB018D8BA0
:102440009E8BAF8BB88F6D897E898F89988D20E0A8
:1024500030E040E85FE30E94250488232CF481E00B
:1024600090E09C8B8B8B3FC06D897E898F89988D86
:1024700020E03FEF4FE757E40E94C50318164CF5E4
:10248000698D7A8D8B8D9C8D20E030E040E251E4A7
:102490000E941F02DC01CB01BC01CD010E9449005A
:1024A000DC01CB019C8B8B8B0FC089E190E09A8B78
:1024B000898B89899A890197F1F79A8B898B8B8906
:1024C0009C8901979C8B8B8B8B899C89009769F7E2
:1024D00014C06D897E898F89988D0E944900DC0126
:1024E000CB019C8B8B8B8B899C89988B8F878F855D
:1024F00098890197F1F7988B8F8783E062E040E03D
:102500000E94630980E090E0A0E2B1E48B879C87A1
:10251000AD87BE876B857C858D859E8520E030E00C
:102520004AE753E40E941F02DC01CB018F839887A6
:10253000A987BA876F81788589859A8520E030E000
:1025400040E85FE30E94250488232CF481E090E0BA
:102550009E838D833FC06F81788589859A8520E031
:102560003FEF4FE757E40E94C50318164CF56B8503
:102570007C858D859E8520E030E040E251E40E941C
:102580001F02DC01CB01BC01CD010E944900DC012E
:10259000CB019E838D830FC089E190E09C838B8368
:1025A0008B819C810197F1F79C838B838D819E8128
:1025B00001979E838D838D819E81009769F714C05A
:1025C0006F81788589859A850E944900DC01CB015D
:1025D0009E838D838D819E819A83898389819A814F
:1025E0000197F1F79A8389836D960FB6F894DEBF51
:1025F0000FBECDBFCF91DF910895DF93CF93CDB7BD
:10260000DEB72F970FB6F894DEBF0FBECDBF8F8712
:1026100083E060E040E00E94630983E061E040E025
:102620000E94630983E062E040E00E9463098F85B5
:10263000982F991F9927991F82E067E0492F0E94E0
:1026400063098F858295869586958370982F917002
:1026500082E066E0492F0E9463098F858295869506
:102660008770982F917082E065E0492F0E9463097E
:102670008F8582958F70982F917082E064E0492F4A
:102680000E9463098F85869586958695982F91700F
:1026900082E063E0492F0E9463098F8586958695C5
:1026A000982F917082E062E0492F0E9463098F8524
:1026B0008695982F917082E061E0492F0E9463090E
:1026C0008F85982F917082E060E0492F0E94630906
:1026D00083E062E041E00E94630980E090E0A0E2D4
:1026E000B1E48B879C87AD87BE876B857C858D85A4
:1026F0009E8520E030E04AE753E40E941F02DC019F
:10270000CB018F839887A987BA876F817885898560
:102710009A8520E030E040E85FE30E9425048823AA
:102720002CF481E090E09E838D833FC06F8178859B
:1027300089859A8520E03FEF4FE757E40E94C50363
:1027400018164CF56B857C858D859E8520E030E0E4
:1027500040E251E40E941F02DC01CB01BC01CD012B
:102760000E944900DC01CB019E838D830FC089E16B
:1027700090E09C838B838B819C810197F1F79C83F4
:102780008B838D819E8101979E838D838D819E8118
:10279000009769F714C06F81788589859A850E94B2
:1027A0004900DC01CB019E838D838D819E819A83BC
:1027B000898389819A810197F1F79A83898383E0DC
:1027C00062E040E00E9463092F960FB6F894DEBFE6
:1027D0000FBECDBFCF91DF910895DF93CF9300D08F
:1027E00000D0CDB7DEB78A836B8381E089838A818D
:1027F000813031F48B8180580E94791189830CC01B
:102800008A81823031F48B8180540E9479118983CE
:1028100003C083E08C8302C089818C838C810F90FC
:102820000F900F900F90CF91DF910895DF93CF938A
:1028300000D00F92CDB7DEB781E08B831A8231C012
:102840008A81882F90E0880F991FFC01EA57FE4F7C
:1028500020818A81882F90E0880F991FFC01E95719
:10286000FE4F9081822F692F40E00E9477088A8175
:10287000882F90E0880F991FFC01EA57FE4F2081B6
:102880008A81882F90E0880F991FFC01E957FE4F3D
:102890009081822F692F41E00E9463098A818F5FB6
:1028A0008A838A81843060F2198231C08981882FBD
:1028B00090E0880F991FFC01E257FE4F208189812B
:1028C000882F90E0880F991FFC01E157FE4F9081FF
:1028D000822F692F41E00E9477088981882F90E03C
:1028E000880F991FFC01E257FE4F20818981882FB4
:1028F00090E0880F991FFC01E157FE4F9081822FD5
:10290000692F41E00E94630989818F5F89838981F2
:10291000863060F21B828B810F900F900F90CF91C9
:10292000DF910895DF93CF93CDB7DEB727970FB62A
:10293000F894DEBF0FBECDBF9E838D8381E08B8375
:102940001A8290C08A81882F90E0880F991FFC011D
:10295000E257FE4F20818A81882F90E0880F991FCF
:10296000FC01E157FE4F9081822F692F40E00E94C9
:102970006309198259C08981882F90E0880F991FB7
:10298000FC01EA57FE4F40818981882F90E0880F33
:10299000991FFC01E957FE4F90819E012C5F3F4F2C
:1029A000842F692FA9010E944F0A8C818823C9F5C1
:1029B0001AC08981882F90E0880F991FFC01EA577F
:1029C000FE4F40818981882F90E0880F991FFC017C
:1029D000E957FE4F90819E012C5F3F4F842F692F56
:1029E000A9010E944F0A8C81882319F38981282F1D
:1029F00030E0C901880F991F820F931F880F991F1C
:102A00009C018A81882F90E0820F931FFC01E2597C
:102A1000FE4F8081ED81FE8180831B828B818F83BD
:102A20002CC089818F5F89838981843008F4A3CF8A
:102A30008A81882F90E0880F991FFC01E257FE4F92
:102A400020818A81882F90E0880F991FFC01E1572F
:102A5000FE4F9081822F692F41E00E9463098A8195
:102A60008F5F8A838A81863008F46CCFED81FE8186
:102A70008FEF80831B828B818F838F8127960FB688
:102A8000F894DEBF0FBECDBFCF91DF910895DF93E5
:102A9000CF9300D0CDB7DEB71A8219821DC08981CD
:102AA0009A81FC01EE55FC4F108289819A81FC01CC
:102AB000EA54FC4F108289819A81FC01E65DFC4F4B
:102AC000108289819A81FC01E25CFC4F108289812D
:102AD0009A8101969A83898389819A8184319105AB
:102AE000F4F20F900F90CF91DF910895DF93CF9381
:102AF000CDB7DEB729970FB6F894DEBF0FBECDBFB6
:102B000018861F821E82CE0109960E949214898522
:102B10008F3FC9F38E81882309F48BC089858D335B
:102B200091F38985813419F08985833431F40E94C9
:102B3000471518860E9490117AC089850E94751CDD
:102B4000882309F45BC00E9490111D821C8217C06B
:102B50008C819D81FC01EE55FC4F10828C819D8102
:102B6000FC01EA54FC4F10828C819D81FC01E65DE2
:102B7000FC4F10828C819D8101969D838C838C817A
:102B80009D818431910524F318861DC08885282FE6
:102B900030E08885882F90E0FC01E25CFC4F80816A
:102BA000F901EA54FC4F80838885882F90E0FC016E
:102BB000EA54FC4F80810E9462118F818F5F8F8366
:102BC00088858F5F88878885882F90E0FC01E25C8C
:102BD000FC4F80818823D1F68885882F90E0298555
:102BE000FC01EA54FC4F208388858F5F88878985A4
:102BF0000E9462118F818F5F8F8319C089858C330A
:102C0000B1F089858E3399F018860E9490110E9448
:102C100047158885882F90E02985FC01EA54FC4FF0
:102C2000208388858F5F888789850E9462111E8234
:102C30006ACF8985813439F40E9490110E9447152A
:102C400018861F8260CF8985833409F059C0888532
:102C5000882309F458CF8885815088878885882FF4
:102C600090E0FC01EA54FC4F10820E9490111B82FC
:102C70002CC08B81882F90E0FC01EA54FC4F8081AE
:102C80008823B9F48B81282F30E08B81882F90E046
:102C90000196FC01EA54FC4F8081F901EA54FC4F93
:102CA00080838B81882F90E00196FC01EA54FC4FD1
:102CB00010828B81882F90E0FC01EA54FC4F8081C8
:102CC0000E9462118B818F5F8B838B81282F30E074
:102CD0008F81882F90E001972817390754F2888553
:102CE000282F30E080E090E0B9010E946D0C8887C9
:102CF00081E068850E94ED138F8181508F8303CF1F
:102D000089858D3309F09BC081E08E831F820E94EC
:102D1000D81C8A838A81843059F50E94901181E001
:102D200062E00E94ED1383E50E94621189E50E9432
:102D300062118EE40E94621184E50E94621181E4B6
:102D40000E94621188E50E94621180E20E94621175
:102D500085E40E94621182E50E94621182E50E9470
:102D600062118FE40E94621182E50E946211CBCE53
:102D70008A81882309F0C7CE82E060E00E94ED13CB
:102D80000E9460178A838A81853029F50E949011FC
:102D900081E063E00E94ED138DE40E94621181E402
:102DA0000E94621184E50E94621188E40E9462110F
:102DB00080E20E94621185E40E94621182E50E9415
:102DC000621182E50E9462118FE40E94621182E525
:102DD0000E94621198CE8A818630F9F40E94901187
:102DE00081E064E00E94ED138FE40E94621186E5A9
:102DF0000E94621185E40E94621182E50E946211C4
:102E000086E40E9462118CE40E9462118FE40E94A9
:102E1000621187E50E94621176CE19820CC0898109
:102E2000882F90E0FC01E25CFC4F80810E946211DF
:102E300089818F5F89838981843188F364CE898514
:102E40008E33C1F48885882F90E0019684319105F6
:102E500064F48885882F90E0FC01EA54FC4F80815F
:102E6000882319F088858F5F888781E068850E94B4
:102E7000ED1349CE89858C3389F488858150888704
:102E80008885282F30E080E090E0B9010E946D0C29
:102E9000888781E068850E94ED1335CE8F818F5F32
:102EA0008F8389850E9462118885882F90E029850B
:102EB000FC01EA54FC4F208388858F5F888723CEEE
:102EC000EF92FF920F931F93DF93CF93CDB7DEB7AF
:102ED00064970FB6F894DEBF0FBECDBF0E94F818FE
:102EE000CE0140960E941F1A8F878F85853019F476
:102EF00085E08C8B4AC188899989AA89BB89BC01E4
:102F0000CD0128E23BE64EEE5EE40E94C5031816B2
:102F10001CF486E08C8B39C11E8688899989AA8920
:102F2000BB89BC01CD0120E030E040E050E00E94D0
:102F300025048823A4F48E85882F90E0FC01E25CB0
:102F4000FC4F8DE280838E858F5F8E87888999897B
:102F5000AA89BB89B058888B998BAA8BBB8B88892F
:102F60009989AA89BB89BC01CD010E94B304DC0107
:102F7000CB018A879B87AC87BD878A859B85AC857B
:102F8000BD858E839F83A887B9878A859B85AC85FD
:102F9000BD850097A105B10559F48E85882F90E075
:102FA000FC01E25CFC4F80E380838E858F5F8E871F
:102FB000E888F9880A891B896A857B858C859D85C7
:102FC0000E9455049B01AC01C801B7010E94C101D8
:102FD000DC01CB01888B998BAA8BBB8B1D821C8259
:102FE00017C08C819D8101969D838C838E819F81EA
:102FF000A885B9852AE030E040E050E0BC01CD0171
:103000000E941B22DA01C9018E839F83A887B9879A
:103010008E819F81A885B9850097A105B10509F723
:103020008E85282F30E08C819D81820F931F019720
:103030009B838A832CC00A811B818A859B85AC85F2
:10304000BD852AE030E040E050E0BC01CD010E94A7
:103050001B22DC01CB01805DF801E25CFC4F808328
:103060008A859B85AC85BD852AE030E040E050E054
:10307000BC01CD010E941B22DA01C9018A879B870E
:10308000AC87BD878A819B8101979B838A838E85CC
:10309000282F30E08A819B818217930764F69C81F8
:1030A0008E85890F8E87E888F9880A891B89888927
:1030B0009989AA89BB89BC01CD010E94B304DC01B6
:1030C000CB01BC01CD010E9455049B01AC01C8019C
:1030D000B7010E94C101DC01CB01BC01CD010E94FE
:1030E000930CDC01CB01BC01CD012CEA35EC47E2AD
:1030F00057E30E94C50318160CF044C08E85882F34
:1031000090E0FC01E25CFC4F8EE280838E858F5F55
:103110008E87198234C088899989AA89BB89BC01A4
:10312000CD0120E030E040E251E40E941F02DC01CA
:10313000CB01888B998BAA8BBB8B8E85082F10E0D7
:1031400088899989AA89BB89BC01CD010E94B304F1
:10315000DC01CB012AE030E040E050E0BC01CD01D1
:103160000E941B22DC01CB01805DF801E25CFC4F78
:1031700080838E858F5F8E8789818F5F8983898128
:10318000843048F21F868F858C8B8C8964960FB6AD
:10319000F894DEBF0FBECDBFCF91DF911F910F918D
:1031A000FF90EF900895DF93CF9300D0CDB7DEB7B7
:1031B000898389818B3219F089818D3211F41A82C9
:1031C00011C089818A3219F089818F3219F481E026
:1031D0008A8308C089818E3519F482E08A8302C00F
:1031E0008FEF8A838A810F900F90CF91DF9108959E
:1031F0001F93DF93CF93CDB7DEB72D970FB6F8941B
:10320000DEBF0FBECDBF81E08E8382EA93E09D8357
:103210008C83CE0107960E947C0B1B821A82198236
:10322000D6C029813A818C819D81FC01E20FF31F78
:103230008081893249F513C0CE010B969E01295F2A
:103240003F4FB9010E94C30B8B81882F90E02B85E3
:10325000FC01E65DFC4F20838B818F5F8B83CE0169
:1032600007960E94FE0B009731F4CE0107960E944C
:103270005B0C883209F7CE010B969E01295F3F4F08
:10328000B9010E94C30B9EC029813A818C819D8126
:10329000FC01E20FF31F8081883271F429813A81A9
:1032A0008C819D81FC01E20FF31F2081CE010796E6
:1032B000622F0E94900B86C029813A818C819D816A
:1032C000FC01E20FF31F80818B32E9F129813A8101
:1032D0008C819D81FC01E20FF31F80818D3299F179
:1032E00029813A818C819D81FC01E20FF31F80814D
:1032F0008A3249F129813A818C819D81FC01E20F5A
:10330000F31F80818F32F9F029813A818C819D8170
:10331000FC01E20FF31F80818E3509F041C013C01C
:10332000CE010C969E01295F3F4FB9010E94C30B4D
:103330008B81882F90E02C85FC01E65DFC4F20837B
:103340008B818F5F8B83CE0107960E94FE0B0097C7
:10335000C9F4CE0107960E945B0C883299F029814E
:103360003A818C819D81FC01E20FF31F80810E94D4
:10337000D318182FCE0107960E945B0C0E94D31819
:10338000811770F629813A818C819D81FC01E20FC1
:10339000F31F2081CE010796622F0E94900B12C06E
:1033A0008B81482F50E029813A818C819D81FC01DD
:1033B000E20FF31F8081FA01E65DFC4F80838B8171
:1033C0008F5F8B8389819A8101969A838983298172
:1033D0003A818C819D81FC01E20FF31F808188235B
:1033E00009F01FCF13C0CE010D969E01295F3F4FFC
:1033F000B9010E94C30B8B81882F90E02D85FC01C1
:10340000E65DFC4F20838B818F5F8B83CE01079617
:103410000E94FE0B009739F38B81882F90E0FC010E
:10342000E65DFC4F10821E828E812D960FB6F894B9
:10343000DEBF0FBECDBFCF91DF911F910895CF9218
:10344000DF92EF92FF920F931F93DF93CF93CDB74D
:10345000DEB72E970FB6F894DEBF0FBECDBF9B87A9
:103460008A8781E08B83CE0104960E947C0B1A82AE
:10347000198206C289819A81FC01E65DFC4F808138
:103480008134A0F089819A81FC01E65DFC4F808146
:103490008B3560F489819A81FC01E65DFC4F2081C7
:1034A000CE010496622F0E94900BE5C1CE010496D6
:1034B0000E941B0C823091050CF4DAC1CE010996F2
:1034C0009E012C5F3F4FB9010E94C30BCE010896AD
:1034D0009E012C5F3F4FB9010E94C30B89819A81E5
:1034E000FC01E65DFC4F8081282F30E03E872D8770
:1034F0008D859E858D32910509F464C02D853E85AC
:103500002E32310564F48D859E858A32910509F449
:103510009FC02D853E852B32310571F0ACC18D8564
:103520009E858F32910509F4D9C02D853E852E35B3
:10353000310509F43CC19FC18885882F90E00F2E8A
:10354000FFEBCF2EFFEFDF2EF02DC80ED91E8885A2
:10355000882F90E081549040880F991F880F991F01
:10356000FC01EE5AFC4FE080F180028113818985D5
:10357000882F90E081549040880F991F880F991FE1
:10358000FC01EE5AFC4F2081318142815381C801F8
:10359000B7010E94F201DC01CB019C01AD01C60123
:1035A000880F991F880F991FFC01EE5AFC4F20834A
:1035B0003183428353832885CE010496622F0E9473
:1035C000900B59C18885882F90E00F2EFFEBCF2EEE
:1035D000FFEFDF2EF02DC80ED91E8885882F90E0D2
:1035E00081549040880F991F880F991FFC01EE5A53
:1035F000FC4FE080F180028113818985882F90E063
:1036000081549040880F991F880F991FFC01EE5A32
:10361000FC4F2081318142815381C801B7010E9452
:10362000C101DC01CB019C01AD01C601880F991FCE
:10363000880F991FFC01EE5AFC4F2083318342838F
:1036400053832885CE010496622F0E94900B13C1EC
:103650008885882F90E00F2EFFEBCF2EFFEFDF2E17
:10366000F02DC80ED91E8885882F90E08154904097
:10367000880F991F880F991FFC01EE5AFC4FE080BC
:10368000F180028113818985882F90E081549040D8
:10369000880F991F880F991FFC01EE5AFC4F20815B
:1036A000318142815381C801B7010E941F02DC01B0
:1036B000CB019C01AD01C601880F991F880F991F8E
:1036C000FC01EE5AFC4F20833183428353832885CB
:1036D000CE010496622F0E94900BCDC08985882F61
:1036E00090E081549040880F991F880F991FFC012A
:1036F000EE5AFC4F80819181A281B381BC01CD0142
:103700000E94930CDC01CB01BC01CD012CEA35EC0D
:1037100047E257E30E94250488231CF435E03C87E8
:10372000D4C08885882F90E00F2EFFEBCF2EFFEFBF
:10373000DF2EF02DC80ED91E8885882F90E0815489
:103740009040880F991F880F991FFC01EE5AFC4F7B
:10375000E080F180028113818985882F90E0815477
:103760009040880F991F880F991FFC01EE5AFC4F5B
:103770002081318142815381C801B7010E94190320
:10378000DC01CB019C01AD01C601880F991F880F98
:10379000991FFC01EE5AFC4F2083318342835383EF
:1037A0002885CE010496622F0E94900B64C0898503
:1037B000882F90E081549040880F991F880F991F9F
:1037C000FC01EE5AFC4F80819181A281B381BC0142
:1037D000CD0120E030E040E252E40E94C50318161B
:1037E0001CF486E08C8771C08885882F90E00F2EAE
:1037F000FFEBCF2EFFEFDF2EF02DC80ED91E8885F0
:10380000882F90E081549040880F991F880F991F4E
:10381000FC01EE5AFC4FE080F18002811381898522
:10382000882F90E081549040880F991F880F991F2E
:10383000FC01EE5AFC4F2081318142815381C80145
:10384000B7010E94840E9B01AC01C601880F991F2D
:10385000880F991FFC01EE5AFC4F2083318342836D
:1038600053832885CE010496622F0E94900B03C0DB
:1038700091E09C872AC089819A8101969A838983E5
:1038800089819A81FC01E65DFC4F8081882309F0E3
:10389000F1CDCE0104960E945B0C882F90E08154FC
:1038A0009040880F991F880F991FFC01EE5AFC4F1A
:1038B00080819181A281B381EA85FB858083918398
:1038C000A283B3831B822B812C878C852E960FB607
:1038D000F894DEBF0FBECDBFCF91DF911F910F9146
:1038E000FF90EF90DF90CF900895DF93CF9300D0BB
:1038F0000F92CDB7DEB7898389818B3261F08981E0
:103900008D3249F089818A3231F089818F3219F004
:1039100089818E3529F481E090E09B838A8302C0FF
:103920001B821A828A810F900F900F90CF91DF91A6
:103930000895DF93CF9300D0CDB7DEB789831A8285
:103940008981883211F481E08A838A810F900F90F7
:10395000CF91DF910895DF93CF9300D0CDB7DEB73D
:1039600089831A828981893211F481E08A838A816C
:103970000F900F90CF91DF910895DF93CF9300D0F8
:103980000F92CDB7DEB789838981803340F089817A
:103990008A3328F481E090E09B838A8302C01B82F3
:1039A0001A828A810F900F900F90CF91DF91089526
:1039B000DF93CF93CDB7DEB763970FB6F894DEBF32
:1039C0000FBECDBF80E090E0A0E0B0E08A879B878B
:1039D000AC87BD878DEC9CECACECBDE38E839F8304
:1039E000A887B9871D821C821B821A82198252C441
:1039F0008981882F90E0FC01EA54FC4F80818D3250
:103A000051F08981882F90E0FC01EA54FC4F8081BD
:103A10008B3209F099C089818823C1F08981882F70
:103A200090E00197FC01EA54FC4F80810E94751CD4
:103A3000882361F48981882F90E00197FC01EA5482
:103A4000FC4F80810E94991C882379F08981882FFE
:103A500090E0FC01EA54FC4F80818D3209F017C4DC
:103A60008C8191E089278C8312C48981882F90E012
:103A70000197FC01EA54FC4F80810E94AB1C882313
:103A800009F050C08B81282F30E08A818F5BF901CB
:103A9000EE55FC4F80838B818F5F8B838C818823D5
:103AA000D1F08A81682F70E08A859B85AC85BD85C1
:103AB0009C01AD015058CB01880F991F880F991FA9
:103AC000FC01EE5AFC4F20833183428353838A8169
:103AD0008F5F8A8315C08A81882F90E0880F991F95
:103AE000880F991FFC01EE5AFC4F8A859B85AC8597
:103AF000BD8580839183A283B3838A818F5F8A830C
:103B00001D821C8280E090E0A0E0B0E08A879B8765
:103B1000AC87BD878DEC9CECACECBDE38E839F83C2
:103B2000A887B9878B81282F30E08981882F90E082
:103B3000FC01EA54FC4F8081F901EE55FC4F808373
:103B40008B818F5F8B83A3C38981882F90E0FC01D9
:103B5000EA54FC4F80818A3251F08981882F90E0AD
:103B6000FC01EA54FC4F80818F3209F08DC08981BD
:103B70008823C1F08981882F90E00197FC01EA54E5
:103B8000FC4F80810E94751C882361F48981882FF5
:103B900090E00197FC01EA54FC4F80810E94991C3F
:103BA000882319F084E08B8B29C48981882F90E0C9
:103BB0000197FC01EA54FC4F80810E94AB1C8823D2
:103BC00009F050C08B81282F30E08A818F5BF9018A
:103BD000EE55FC4F80838B818F5F8B838C81882394
:103BE000D1F08A81682F70E08A859B85AC85BD8580
:103BF0009C01AD015058CB01880F991F880F991F68
:103C0000FC01EE5AFC4F20833183428353838A8127
:103C10008F5F8A8315C08A81882F90E0880F991F53
:103C2000880F991FFC01EE5AFC4F8A859B85AC8555
:103C3000BD8580839183A283B3838A818F5F8A83CA
:103C40001D821C8280E090E0A0E0B0E08A879B8724
:103C5000AC87BD878DEC9CECACECBDE38E839F8381
:103C6000A887B9878B81282F30E08981882F90E041
:103C7000FC01EA54FC4F8081F901EE55FC4F808332
:103C80008B818F5F8B8303C38981882F90E0FC0138
:103C9000EA54FC4F80810E94751C882309F481C07E
:103CA0008981882361F08981882F90E00197FC0148
:103CB000EA54FC4F80810E94751C882319F084E02F
:103CC0008B8B9CC38981882F90E00197FC01EA547B
:103CD000FC4F80810E94AB1C882309F050C08B816F
:103CE000282F30E08A818F5BF901EE55FC4F8083ED
:103CF0008B818F5F8B838C818823D1F08A81682FA1
:103D000070E08A859B85AC85BD859C01AD015058CE
:103D1000CB01880F991F880F991FFC01EE5AFC4FA9
:103D200020833183428353838A818F5F8A8315C0C6
:103D30008A81882F90E0880F991F880F991FFC01B6
:103D4000EE5AFC4F8A859B85AC85BD858083918327
:103D5000A283B3838A818F5F8A831D821C8280E065
:103D600090E0A0E0B0E08A879B87AC87BD878DECB0
:103D70009CECACECBDE38E839F83A887B9878B81D5
:103D8000282F30E08981882F90E0FC01EA54FC4F15
:103D90008081F901EE55FC4F80838B818F5F8B838F
:103DA00076C28981882F90E0FC01EA54FC4F808123
:103DB0008E3209F040C08D81882379F4898188236F
:103DC00079F08981882F90E00197FC01EA54FC4F3B
:103DD00080810E94AB1C882319F084E08B8B0EC37A
:103DE0008981882329F18981882F90E00197FC013E
:103DF000EA54FC4F80810E94BD1C8823C9F489814C
:103E0000882F90E00197FC01EA54FC4F80810E94CA
:103E1000991C882369F48981882F90E00197FC011F
:103E2000EA54FC4F80810E94751C882309F42FC23C
:103E300081E08D832CC28981882F90E0FC01EA54B7
:103E4000FC4F80810E94BD1C882309F480C08981B9
:103E5000882F90E00197FC01EA54FC4F80810E947A
:103E6000AB1C882319F084E08B8BC8C28D8188231A
:103E7000E9F18981882F90E0FC01EA54FC4F8081B0
:103E8000882F90E0C097AA2797FDA095BA2FBC0174
:103E9000CD010E945504DC01CB01BC01CD012E8176
:103EA0003F81488559850E941F02DC01CB019C019E
:103EB000AD016A857B858C859D850E94F201DC01C0
:103EC000CB018A879B87AC87BD876E817F81888580
:103ED000998520E030E040E251E40E941903DC01C2
:103EE000CB018E839F83A887B987D1C16A857B85E3
:103EF0008C859D8520E030E040E251E40E941F0265
:103F0000DC01CB018A879B87AC87BD878981882F9D
:103F100090E0FC01EA54FC4F8081882F90E0C0972C
:103F2000AA2797FDA095BA2FBC01CD010E94550488
:103F30009B01AC016A857B858C859D850E94F20181
:103F4000DC01CB018A879B87AC87BD87A0C18981B3
:103F5000882F90E0FC01EA54FC4F80810E94AB1C4A
:103F6000882309F496C089818823C1F08981882F2C
:103F700090E00197FC01EA54FC4F80810E94751C7F
:103F8000882361F48981882F90E00197FC01EA542D
:103F9000FC4F80810E94991C882319F084E08B8B50
:103FA0002DC28981882F90E00197FC01EA54FC4FD3
:103FB00080810E94BD1C882321F48D81882309F40F
:103FC0005CC08B81282F30E08A818F5BF901EE5530
:103FD000FC4F80838B818F5F8B838B81882F90E058
:103FE000FC01EE55FC4F89E280838B818F5F8B83D0
:103FF0008C818823D1F08A81682F70E08A859B8527
:10400000AC85BD859C01AD015058CB01880F991F2F
:10401000880F991FFC01EE5AFC4F208331834283A5
:1040200053838A818F5F8A8315C08A81882F90E0AD
:10403000880F991F880F991FFC01EE5AFC4F8A8543
:104040009B85AC85BD8580839183A283B3838A8160
:104050008F5F8A831D821C8280E090E0A0E0B0E048
:104060008A879B87AC87BD878DEC9CECACECBDE36D
:104070008E839F83A887B9870AC18B81882F90E0A0
:10408000FC01EE55FC4F89E280838B818F5F8B832F
:10409000FEC08981882F90E0FC01EA54FC4F8081AA
:1040A0000E94991C882309F4F2C08981882309F4AD
:1040B00068C08981882F90E00197FC01EA54FC4F89
:1040C00080810E94AB1C882309F45BC08B81882F00
:1040D00090E0FC01EE55FC4F8AE280838B818F5F7C
:1040E0008B838B81882F90E0FC01EE55FC4F88E29A
:1040F00080838B818F5F8B838C818823D1F08A8131
:10410000682F70E08A859B85AC85BD859C01AD01DB
:104110005058CB01880F991F880F991FFC01EE5A48
:10412000FC4F20833183428353838A818F5F8A834C
:1041300015C08A81882F90E0880F991F880F991FDA
:10414000FC01EE5AFC4F8A859B85AC85BD8580833A
:104150009183A283B3838A818F5F8A831D821C82AD
:1041600080E090E0A0E0B0E08A879B87AC87BD87C5
:104170008DEC9CECACECBDE38E839F83A887B98764
:1041800086C08981882309F477C08981882F90E0CF
:104190000197FC01EA54FC4F80810E94BD1C8823DA
:1041A00021F48D81882309F467C08B81282F30E0AA
:1041B0008A818F5BF901EE55FC4F80838B818F5F85
:1041C0008B838B81882F90E0FC01EE55FC4F8AE2B7
:1041D00080838B818F5F8B838B81882F90E0FC01A4
:1041E000EE55FC4F88E280838B818F5F8B838C81BF
:1041F0008823D1F08A81682F70E08A859B85AC8501
:10420000BD859C01AD015058CB01880F991F880FC7
:10421000991FFC01EE5AFC4F208331834283538364
:104220008A818F5F8A8315C08A81882F90E0880FEA
:10423000991F880F991FFC01EE5AFC4F8A859B85B8
:10424000AC85BD8580839183A283B3838A818F5F90
:104250008A831D821C8280E090E0A0E0B0E08A8723
:104260009B87AC87BD878DEC9CECACECBDE38E836B
:104270009F83A887B9870BC08B81882F90E0FC01B2
:10428000EE55FC4F88E280838B818F5F8B83898121
:104290008F5F89838981882F90E0FC01EA54FC4F6D
:1042A0008081882309F0A4CB8B81882F90E001972F
:1042B000FC01EE55FC4F8081893209F43EC08B81B0
:1042C000282F30E08A818F5BF901EE55FC4F808307
:1042D0008B818F5F8B838C818823D1F08A81682FBB
:1042E00070E08A859B85AC85BD859C01AD015058E9
:1042F000CB01880F991F880F991FFC01EE5AFC4FC4
:1043000020833183428353838A818F5F8A8315C0E0
:104310008A81882F90E0880F991F880F991FFC01D0
:10432000EE5AFC4F8A859B85AC85BD858083918341
:10433000A283B3838A818F5F8A838A81882331F441
:104340008981882319F084E08B8B58C0CE010E96AA
:104350000E947C0B19822DC08981882F90E0FC017E
:10436000EA54FC4F8081883231F4CE010E9669E226
:104370000E94900B1BC08981882F90E0FC01EA54B9
:10438000FC4F8081893291F4CE010E960E94FE0B83
:10439000009749F4CE0142969E01225F3F4FB9013A
:1043A0000E94C30B03C084E08B8B28C089818F5F80
:1043B00089838981882F90E0FC01EA54FC4F808139
:1043C000882351F6CE010E960E94FE0B009719F439
:1043D00084E08B8B13C08981882379F08981882FB1
:1043E00090E00197FC01EA54FC4F80810E94751C0B
:1043F000882319F084E08B8B01C01B8A8B8963961C
:104400000FB6F894DEBF0FBECDBFCF91DF910895F8
:10441000DF93CF93CDB7DEB70E94D00C0E94FC068D
:104420000E9416140E94400F0E94761580E090E0D2
:10443000CF91DF91089597FB092E05260ED057FDE9
:1044400004D014D00AD0001C38F450954095309513
:1044500021953F4F4F4F5F4F0895F6F79095809508
:10446000709561957F4F8F4F9F4F0895A1E21A2E4F
:10447000AA1BBB1BFD010DC0AA1FBB1FEE1FFF1F08
:10448000A217B307E407F50720F0A21BB30BE40B58
:10449000F50B661F771F881F991F1A9469F760959F
:1044A0007095809590959B01AC01BD01CF01089559
:1044B0002F923F924F925F926F927F928F929F9234
:1044C000AF92BF92CF92DF92EF92FF920F931F9322
:1044D000CF93DF93CDB7DEB7CA1BDB0B0FB6F894D3
:1044E000DEBF0FBECDBF09942A88398848885F8413
:1044F0006E847D848C849B84AA84B984C884DF8084
:10450000EE80FD800C811B81AA81B981CE0FD11D67
:104510000FB6F894DEBF0FBECDBFED010895CF9367
:10452000DF93BC018230910510F462E070E0A0914D
:10453000CC03B091CD03ED01E0E0F0E040E050E0CD
:1045400021C0888199818617970769F48A819B81A8
:10455000309719F09383828304C09093CD038093A6
:10456000CC03FE0134C06817790738F441155105B2
:1045700019F08417950708F4AC01FE018A819B812C
:104580009C01E9012097E9F641155105A9F1CA01FD
:10459000861B970B049708F4BA01E0E0F0E02AC00C
:1045A0008D919C91119784179507F9F464177507FD
:1045B00081F412968D919C911397309719F0938303
:1045C000828304C09093CD038093CC03FD01329687
:1045D0004FC0CA01861B970BFD01E80FF91F6193BD
:1045E000719302978D939C9343C0FD0182819381C7
:1045F0009C01D9011097A1F68091CA039091CB0339
:10460000892B41F480916A0190916B019093CB03C7
:104610008093CA0340916C0150916D014115510581
:1046200041F44DB75EB78091680190916901481BD4
:10463000590B2091CA033091CB0324173507B0F4EE
:10464000CA01821B930B8617970780F0AB014E5F60
:104650005F4F8417950750F0420F531F5093CB03C1
:104660004093CA03F9016193719302C0E0E0F0E066
:10467000CF01DF91CF910895CF93DF93009709F495
:1046800050C0EC0122971B821A82A091CC03B091FA
:10469000CD03109709F140E050E0AC17BD0708F1D9
:1046A000BB83AA83FE0121913191E20FF31FAE1764
:1046B000BF0779F48D919C911197280F391F2E5FB8
:1046C0003F4F3983288312968D919C9113979B833A
:1046D0008A834115510571F4D093CD03C093CC0367
:1046E00020C012968D919C911397AD01009711F007
:1046F000DC01D3CFFA01D383C28321913191E20F40
:10470000F31FCE17DF0769F488819981280F391FBD
:104710002E5F3F4FFA01318320838A819B819383EF
:0C4720008283DF91CF910895F894FFCFC1
:10472C00000000000000000000010202030303036C
:10473C000404040404040404050505050505050525
:10474C000505050505050505060606060606060605
:10475C0006060606060606060606060606060606ED
:10476C0006060606060606060707070707070707D5
:10477C0007070707070707070707070707070707BD
:10478C0007070707070707070707070707070707AD
:10479C00070707070707070707070707070707079D
:1047AC000707070707070707080808080808080885
:1047BC00080808080808080808080808080808086D
:1047CC00080808080808080808080808080808085D
:1047DC00080808080808080808080808080808084D
:1047EC00080808080808080808080808080808083D
:1047FC00080808080808080808080808080808082D
:10480C00080808080808080808080808080808081C
:10481C00080808080808080808080808080808080C
:10482C0008080808080808082000CE0300004137D3
:10483C0038392A2F433435362D5E3C3132332B290F
:10484C003E302E3D2B280000000100020003000426
:0A485C00000500060007010001013D
:00000001FF
